:020000040800F2
:10000000482F0020AD010008053F0008073F000809
:100010000B3F00080F3F0008133F000800000000DE
:10002000000000000000000000000000173F000872
:10003000193F0008000000001B3F00081F3F000898
:10004000C7010008C7010008C7010008C701000870
:10005000C7010008C7010008C7010008C701000860
:10006000C7010008C7010008C7010008C701000850
:10007000C7010008C7010008C7010008C701000840
:10008000C7010008C7010008C70100080000000000
:10009000000000000000000000000000C701000890
:1000A000C7010008C7010008C7010008C701000810
:1000B000C7010008C7010008C7010008C701000800
:1000C000C7010008C7010008C7010008C7010008F0
:1000D000C70100086F3800088F38000800000000D2
:1000E000C7010008C7010008C701000800000000A0
:1000F000000000000000000000000000C701000830
:1001000000000000C7010008C7010008C70100087F
:1001100000000000000000000000000000000000DF
:10012000C7010008C7010008C7010008C70100088F
:10013000C7010008000000000000000000000000EF
:10014000000000000000000000000000C7010008DF
:10015000C7010008C7010008C7010008B33800083C
:10016000C7010008C70100080000000000000000EF
:10017000000000000000000000000000000000007F
:1001800000000000C701000800000000000000009F
:10019000C7010008C7010008DFF80CD006F006FF11
:1001A00000480047F1380008482F002006488047E3
:1001B00006480047FEE7FEE7FEE7FEE7FEE7FEE74C
:1001C000FEE7FEE7FEE7FEE7293F00089901000889
:1001D000704770B5044601F027FB4FF47A71B0FB0D
:1001E000F1F5284600F05AF900222146501E00F091
:1001F000DFF8002070BD10B55748006840F400706B
:10020000554908600846006840F480600860084668
:10021000006840F480700860032000F0B7F80F20F9
:10022000FFF7D7FFFFF7D4FF002010BD704710B5D0
:100230004FF0FF304949086000200860401E091D4A
:10024000086000200860401E444910390860002002
:100250000860401E091D086000200860401E091D3E
:10026000086000200860FFF7E1FF002010BD3C4857
:100270000068401C3A490860704739480068704778
:1002800031B5002402F06CFE044600BF02F068FEA7
:10029000001B00998842F9D338BD4FF0E020006977
:1002A00020F002004FF0E021086170474FF0E0209D
:1002B000006940F002004FF0E021086170474FF004
:1002C0008270704727480068000C70472548006816
:1002D000C0F30B0070472348406840F001002149FB
:1002E000486070471F48406820F001001D49486081
:1002F00070471C48406840F002001A494860704747
:100300001848406820F002001649486070471548B8
:10031000406840F004001349486070471148406845
:1003200020F004000F4948607047012090FAA0F1C6
:10033000B1FA81F10C4A02EB8101C1F80004704767
:100340000020012191FAA1F1B1FA81F1064A02EBF4
:100350008101C1F800047047003C0240203802408F
:1003600000000020002004E00000274210B5002813
:1003700007DA0A07140EBF4A00F00F031B1FD454FC
:1003800003E00A07130EBC4A135410BD00BF00F06F
:100390000702B84B0C3B19684FF6FF031940B74BE7
:1003A0000B4343EA0221B34B0C3B196000BF70477B
:1003B0002DE9F05F80460D461646002700F054F9FF
:1003C000074639462A46334601F00700C0F1070ABE
:1003D000BAF1040F02D94FF0040A01E0C0F1070A94
:1003E000D14600F1040ABAF1070F02D24FF0000A19
:1003F00001E0A0F1030AD4464FF0010A0AFA09FA13
:10040000AAF1010A0AEA020A0AFA0CFA4FF0010BF1
:100410000BFA0CFBABF1010B0BEA030B4AEA0B04E2
:1004200021464046FFF7A2FFBDE8F09F00BF00F065
:100430001F02012191404209920002F1E022C2F81C
:10044000001100BF704700BF00F01F020121914062
:100450008B4A430942F8231000BF704700BF00BF1A
:1004600000BF00BF00BFBFF34F8F00BF00BF00BF82
:1004700080480C38006800F4E06080490843001DA3
:100480007C490C39086000BF00BF00BFBFF34F8F2D
:1004900000BF00BF00BF00E000BFFDE770B504462D
:1004A0002546681EB0F1807F01D301200FE0681E51
:1004B0004FF0E02148610F214FF0FF30FFF756FF6A
:1004C00000204FF0E021886107200861002070BD06
:1004D0004178684A803211600178F9B1121D416893
:1004E0001160017B0907C27A41EA0261827A41EA1E
:1004F000C241427B41EA8241827B41EA4241C27B66
:1005000041EA0241427A41EA0221027A41EA420189
:1005100002781143574A8832116005E00021554A9C
:1005200084321160121D1160704710B500F09CF804
:1005300010BD2DE9F04304462046002808DA4D4F4F
:1005400000F00F0CACF1040C17F80C703F0902E03E
:10055000494F3F5C3F093D460E4606F00700C0F19B
:100560000708B8F1040F02D94FF0040801E0C0F108
:100570000708C44600F10408B8F1070F02D24FF093
:10058000000801E0A0F10308474625FA07F84FF0FC
:10059000010909FA0CF9A9F1010908EA0908C2F8E8
:1005A00000804FF0010808FA07F8A8F1010808EAEE
:1005B0000508C3F8008000BFBDE8F08300BF00F06D
:1005C0001F02012191402E4A8032430942F8231034
:1005D00000BF704710B501460846294A80324309DA
:1005E00052F8232000F01F040123A3401A400AB14F
:1005F000012200E00022104610BD00BF00F01F02E3
:10060000012191401F4A430942F8231000BF70475F
:1006100010B5014608461B4A8032430952F8232090
:1006200000F01F040123A3401A400AB1012200E098
:100630000022104610BD042808D14FF0E0210969BE
:1006400041F004014FF0E022116107E04FF0E0219A
:10065000096921F004014FF0E022116170477047F1
:1006600010B5FFF7FCFF10BD02480C380068C0F35E
:100670000220704718ED00E000E400E00000FA05F9
:1006800080E100E080E200E001460878103818239D
:10069000B0FBF3F2F648805C4865032A05D9086888
:1006A0006FF30900001D086503E008686FF3090097
:1006B0000865086D704770B5044600250CB9012027
:1006C00070BD606A00B100BF022084F83500206868
:1006D0000568E8480540D4E901010843E16808439A
:1006E0002169084361690843A1690843E169084336
:1006F000216A08430543606A042803D1D4E90B0149
:1007000008430543206805602068456925F0070512
:10071000606A0543606A042801D1A06A0543206825
:1007200045612046FFF7B0FF0020E064012084F817
:1007300035000020C4E770B504460CB9012070BD37
:1007400094F83500022801D10120F8E720680068FC
:1007500020F00100216808600020216808602168FD
:100760004860216888602168C8602168086121208C
:10077000216848612046FFF787FF054694F854102A
:100780003F208840A8600020E06484F8350000BF66
:1007900084F8340000BF00BFD1E730B50468246896
:1007A00024F4802405682C60046863608468402C0D
:1007B00004D10468A2600468E16003E00468A160F9
:1007C0000468E26030BD2DE9F04104460D4616464E
:1007D0001F4600BF94F83400012802D10220BDE872
:1007E000F081012084F8340000BF022084F8350035
:1007F0002068006820F00100216808603B4632460E
:1008000029462046FFF7C9FF2068006840F0010034
:10081000216808600020E2E72DE9F04104460D461A
:1008200016461F4600BF94F83400012802D102206A
:10083000BDE8F081012084F8340000BF022084F874
:1008400035002068006820F00100216808603B4600
:10085000324629462046FFF7A0FF2068006840F096
:100860001E00216808602068406940F0800021680F
:1008700048612068006840F001002168086000209D
:10088000D6E770B5044600252068006820F0010016
:100890002168086002F064FB054612E002F060FB8C
:1008A000401BB0F57A7F0CD9E06C40F02000E0648A
:1008B00000BF002084F8340000BF032084F8350016
:1008C00070BD2068006800F001000028E6D100BF7C
:1008D00084F8340000BF012084F835000020EFE7E1
:1008E0002DE9F84F04460F46164600200090256D6E
:1008F0002FB994F85410202000FA01F804E094F87D
:100900005410102000FA01F802F02AFB009064E075
:10091000286814F8542F0821914000EA010928683A
:1009200022785549914000EA010A286814F85429B0
:100930005149C91C914000EA010BB9F1000F05D1E2
:10094000BAF1000F02D1BBF1000F2FD0B9F1000FA7
:1009500008D0E06C40F00100E06494F854100820E6
:100960008840A860BAF1000F08D0E06C40F00200A7
:10097000E06494F8541040488840A860BBF1000F30
:1009800009D0E06C40F00400E06494F854103A4858
:10099000C01C8840A860042084F8350000BF0020F7
:1009A00084F8340000BF0120BDE8F88F701CA0B1AE
:1009B0002EB102F0D5FA0099401AB0420DD9E06C80
:1009C00040F02000E064032084F8350000BF0020E0
:1009D00084F8340000BF0320E6E7286800EA080036
:1009E000002895D01FBB94F8541030208840A86090
:1009F0002068006800F4802088B12068006800F456
:100A0000002018B9112084F835000BE02068006838
:100A100000F4002030B1212084F8350002E01120DC
:100A200084F8350000BF002084F834001EE094F8FC
:100A3000541010208840A8602068006800F48020CE
:100A400088B12068006800F4002018B9312084F8CB
:100A500035000BE02068006800F4002030B1412030
:100A600084F8350002E0312084F8350000209BE74F
:100A7000A07500083F8010F00100800070B50446AA
:100A8000256D286894F8542008219140084000B34F
:100A90002068006800F00400D8B12068006820F0E9
:100AA00004002168086094F8541008208840A86069
:100AB000E06C40F00100E064042084F8350000BFE1
:100AC000002084F8340000BFA06C10B12046A16C57
:100AD0008847286894F8542070499140084000B332
:100AE0002068406900F08000D8B12068406920F09B
:100AF00080002168486194F8541068488840A860D4
:100B0000E06C40F00200E064042084F8350000BF8F
:100B1000002084F8340000BFA06C10B12046A16C06
:100B20008847286894F854205C49C91C91400840C3
:100B300008B32068006800F00200E0B12068006897
:100B400020F002002168086094F854105348C01C3B
:100B50008840A860E06C40F00400E064042084F861
:100B6000350000BF002084F8340000BFA06C10B135
:100B70002046A16C8847286894F8542010219140A1
:100B80000840C0B32068006800F0080098B32068EF
:100B9000006800F48020B0B194F854101020884010
:100BA000A8602068006800F4002018B9312084F89B
:100BB00035001BE02068006800F40020B0B141203F
:100BC00084F8350012E02068006800F4807028B9CD
:100BD0002068006820F008002168086094F854102C
:100BE00010208840A860312084F83500206C10B1B6
:100BF0002046216C8847286894F854202021914091
:100C0000084018B32068006800F01000F0B12068B8
:100C1000006800F48020D0B194F85410202088405F
:100C2000A8602068006800F4002028B9606C68B1F2
:100C30002046616C884729E02068006800F40020A5
:100C400020B1E06B10B12046E16B88471EE02068C0
:100C5000006800F4807028B92068006820F0100057
:100C60002168086094F8541020208840A860E06C47
:100C7000E064112084F8350000BF002084F83400BF
:100C800000BFE06B10B12046E16B884770BD0146A4
:100C900091F8350070470146C86C7047010080002C
:100CA000F8B503460A460025002400200021CBE0C9
:100CB000012606FA01F5166806EA0504AC4271D170
:100CC0005668022E02D05668122E13D1CF0803F1B7
:100CD000200656F827004E07F70E0F26BE40B043F9
:100CE0004F07FF0E1669BE403043CF0803F12006C0
:100CF00046F8270018684F000326BE40B043167917
:100D000006F003064F00BE40304318605668012EBF
:100D100008D05668022E05D05668112E02D05668AB
:100D2000122E13D198684F000326BE40B0434F00E7
:100D3000D668BE4030439860586801268E40B04364
:100D40001679C6F300168E4030435860D8684F00BD
:100D50000326BE40B0434F009668BE403043D86083
:100D6000566806F08056B6F1805F6CD100BF9B4E8E
:100D7000366846F48046994F3E603E46366806F433
:100D80008046009600BF00BF954E8F0856F827009A
:100D90008E07370F0F26BE40B043924EB34202D1AA
:100DA000002615E04FE0904EB34201D101260FE03E
:100DB0008E4EB34201D102260AE08D4EB34201D1DC
:100DC000032605E08B4EB34201D1042600E0052640
:100DD0008F073F0FBE403043814E8F0846F82700F3
:100DE000854E3068A043566806F48036B6F5803FDD
:100DF00000D12043804E3060361D3068A0435668D5
:100E000006F40036B6F5003F00D120437A4E361D79
:100E10003060361D3068A043566806F48016B6F57B
:100E2000801F00D12043744E08363060361D306874
:100E3000A043566806F40016B6F5001F00D1204303
:100E40006D4E0C363060491C1029FFF431AFF8BDEF
:100E5000F0B50C46002500220023002181E0012688
:100E600006FA01F504EA0502AA4279D106684FEABA
:100E7000410C032707FA0CF7BE430660CF0800F1C8
:100E8000200656F827604F074FEAD76C0F2707FA5E
:100E90000CF7BE434FEAD10C00F1200747F82C6055
:100EA00086684FEA410C032707FA0CF7BE438660B9
:100EB000476801268E40B7434760C6684FEA410C39
:100EC000032707FA0CF7BE43C660454E8F0856F855
:100ED00027308E07370F0F26BE403340414EB042B9
:100EE00001D1002614E0404EB04201D101260FE0AE
:100EF0003E4EB04201D102260AE03D4EB04201D141
:100F0000032605E03B4EB04201D1042600E0052651
:100F10008F073F0FBE409E4222D18E07370F0F260C
:100F200006FA07F32E4E8F0856F827609E432C4F83
:100F30004FEA910C47F82C602F4E366896432E4F9F
:100F40003E603E1D366896433F1D3E603E1D36683E
:100F500096433F1D3E603E1D366896433F1D3E60F2
:100F6000491C1029FFF47BAFF0BD024613690B400A
:100F70000BB1012000E0002070470AB1816101E05F
:100F80000B048361704742694A404261704708B56B
:100F900002464FF48030009000980843009000987B
:100FA000D061D1610098D061D0690090D06900F41F
:100FB000803008B1002008BD0120FCE7704710B563
:100FC00004460D4814300068204028B10A48143007
:100FD00004602046FFF7F2FF10BD000044380240D5
:100FE00008380140000002400004024000080240AE
:100FF000000C024000100240003C0140704738B530
:1010000004460025207800F00100002866D0F6484C
:10101000006800F00C0004280DD0F348006800F0D0
:101020000C00082813D1F048001F006800F480006D
:10103000B0F5800F0BD1EC4808380068C0F3404091
:1010400000284BD06068002848D1012038BD00201E
:10105000E549891F087001F083FF054608E001F0AB
:101060007FFF401B41F28831884201D90320EDE720
:10107000DD4808380068C0F340400028EFD12079EF
:10108000D949891F08706068A0B101F069FF054661
:1010900008E001F065FF401B41F28831884201D928
:1010A0000320D3E7D04808380068C0F34040002848
:1010B000EFD013E001F054FF054608E001F050FFC7
:1010C000401B41F28831884201D90320BEE7C6485F
:1010D00008380068C0F340400028EFD1207800F0C5
:1010E0000200022869D1C048006800F00C0058B125
:1010F000BD48006800F00C00082821D1BA48001F44
:10110000006800F48000D8B9B74808380068C0F318
:10111000400020B1E068012801D0012096E7B248E4
:101120000838006820F0F800F82292FAA2F2B2FA29
:1011300082F2216991400843AB49083908603CE0DC
:10114000E06828B30120A949086001F009FF0546BD
:1011500006E001F005FF401B642801D9032075E774
:10116000A14808380068C0F340000028F1D09E482C
:101170000838006820F0F800F82292FAA2F2B2FAD9
:1011800082F221699140084397490839086014E0C8
:1011900000209649086001F0E3FE054606E001F0F4
:1011A000DFFE401B642801D903204FE78E48083832
:1011B0000068C0F340000028F1D1207800F008005A
:1011C00008282CD16069A8B101208949086001F084
:1011D000C7FE054606E001F0C3FE401B642801D9A6
:1011E000032033E780486C300068C0F340000028DB
:1011F000F1D014E000207E49086001F0B1FE054600
:1012000006E001F0ADFE401B642801D903201DE774
:1012100075486C300068C0F340000028F1D1207898
:1012200000F0040004286DD100BF6F48383000681A
:1012300040F080506C49383108600846006800F082
:101240008050009000BF00BF6A48006840F4807082
:101250006849086001F084FE054606E001F080FE62
:10126000401B642801D90320F0E66248006800F4BE
:1012700080700028F2D000205B496831087001F0CE
:101280006FFE054608E001F06BFE401B41F288311D
:10129000884201D90320D9E6534868300068C0F37A
:1012A00040000028EFD1207A4F4968310870A068CB
:1012B000A0B101F055FE054608E001F051FE401BCB
:1012C00041F28831884201D90320BFE646486830A0
:1012D0000068C0F340000028EFD013E001F040FEAA
:1012E000054608E001F03CFE401B41F2883188428F
:1012F00001D90320AAE63C4868300068C0F34000EA
:101300000028EFD1A069E8B33748006800F00C006E
:10131000082872D0A069022850D1002033490866FD
:1013200001F01EFE054606E001F01AFE401B64288F
:1013300001D903208AE62C4808380068C0F34060D1
:101340000028F1D1D4E90701084347F6C07292FAA8
:10135000A2F2B2FA82F2616A914008430122A16AC4
:10136000C2EB51014FF4403292FAA2F2B2FA82F289
:10137000914008434FF0706292FAA2F2B2FA82F200
:10138000E16A00E03BE0914008431749091F08600B
:1013900001201649086601F0E3FD054606E001F06C
:1013A000DFFD401B642801D903204FE60E480838B2
:1013B0000068C0F340600028F1D020E000200B4915
:1013C000086601F0CDFD054606E001F0C9FD401BB1
:1013D000642801D9032039E6034808380068C0F3BF
:1013E00040600028F1D10AE008380240000047427E
:1013F000800E474200700040FFE7012026E60020F3
:1014000024E670B504460E460025FE48006800F04C
:101410000F00B0426FD2FB490E700846006800F022
:101420000F00B04201D0012070BD207800F0020012
:10143000022807D1F448006820F0F000A1680843B2
:10144000F1490860207800F0010000283ED0606873
:10145000012807D1EC4808380068C0F34040B8B90B
:101460000120E1E76068022802D06068032807D104
:10147000E54808380068C0F3406048B90120D3E768
:10148000E14808380068C0F3400008B90120CBE704
:10149000DD48006820F0030061680843DA4908600D
:1014A00001F05EFD05466068012810D108E001F0FA
:1014B00057FD401B41F28831884201D90320B3E730
:1014C000D148006800F00C000428F0D1CDE060683D
:1014D000022811D108E001F043FD401B41F28831A0
:1014E000884201D903209FE7C748006800F00C003C
:1014F0000828F0D1B9E024E06068032810D108E0A2
:1015000001F02EFD401B41F28831884201D90320B1
:101510008AE7BD48006800F00C000328F0D1A4E081
:1015200008E001F01DFD401B41F28831884201D9DD
:10153000032079E7B448006800F00C000028F0D1DF
:1015400093E0207800F00200022807D1AE4800683E
:1015500020F0F000A1680843AB490860207800F053
:101560000100002877D06068012807D1A648083814
:101570000068C0F34040B8B9012055E76068022810
:1015800002D06068032807D19F4808380068C0F37C
:10159000406048B9012047E79B4808380068C0F31D
:1015A000400008B901203FE79748006820F0030099
:1015B000616808439449086001F0D2FC0546606800
:1015C000012810D108E001F0CBFC401B41F288312A
:1015D000884201D9032027E78B48006800F00C00FF
:1015E0000428F0D137E06068022810D108E001F04B
:1015F000B7FC401B41F28831884201D9032013E730
:101600008148006800F00C000828F0D123E06068F1
:10161000032810D108E001F0A3FC401B41F28831FF
:10162000884201D90320FFE67748006800F00C00EB
:101630000328F0D10FE008E001F092FC401B41F2DA
:101640008831884201D90320EEE66F48006800F037
:101650000C000028F0D16B490E700846006800F0BD
:101660000F00B04201D00120DEE6207800F0040037
:10167000042807D16448006820F4E050E16808437A
:1016800061490860207800F00800082808D15E4809
:10169000006820F46040216940EAC1005A490860AE
:1016A0000F20FEF796FD0020BEE670B586B0064618
:1016B0000C46154636BB00BF53482830006840F042
:1016C00001005149283108600846006800F0010017
:1016D000009000BF00BF88150190022002900320F7
:1016E000049000200390059001A94848FFF7D8FA1C
:1016F0004548006820F0EC6044EA0501084342498F
:10170000086025E000BF40482830006840F0040031
:101710003D49283108600846006800F00400009048
:1017200000BF00BF481501900220029003200490E2
:1017300000200390059001A93548FFF7B1FA32481F
:10174000006820F0784044EAC50108432E4908604B
:1017500006B070BD01202F49C864704700202D4994
:10176000C864704770B50021002200230020264C79
:10177000246804F00C0424B1042C04D0082C4FD1AC
:1017800003E025484EE025484CE01F4C241F246808
:1017900004F03F011C4C241F246804F4800484B12D
:1017A0001E4CB4FBF1F5184C241F246847F6C07694
:1017B000344096FAA6F6B6FA86F6F44005FB04F233
:1017C0000FE0154CB4FBF1F50F4C241F246847F6CD
:1017D000C076344096FAA6F6B6FA86F6F44005FBD3
:1017E00004F2094C241F246804F440344FF44035BB
:1017F00095FAA5F5B5FA85F5EC40641C6300B2FBDB
:10180000F3F00FE0003C02400838024000000240C4
:1018100000080240000047420024F40000127A0051
:101820007E4800BF00BF70BD10B5FFF79BFF7C492D
:10183000096801F0F001F02292FAA2F2B2FA82F203
:10184000D140784A515CC840774908600846006832
:1018500010BD10B5FFF7E8FF7149096801F4E051C8
:101860004FF4E05292FAA2F2B2FA82F2D1406D4AFB
:10187000515CC84010BD10B5FFF7D6FF6849096834
:1018800001F460414FF4604292FAA2F2B2FA82F29D
:10189000D140644A515CC84010BD0F2101606049CD
:1018A0000839096801F48021B1F5802F02D10521A2
:1018B00041600CE05A490839096801F48031B1F5FA
:1018C000803F02D10121416001E000214160544983
:1018D0000839096801F0010111B10121C16001E07D
:1018E0000021C1604E490839096801F0F801F82269
:1018F00092FAA2F2B2FA82F2D1400161484968310B
:10190000096801F00401042902D1052181600AE07F
:1019100043496831096801F0010111B10121816079
:1019200001E0002181603E496C31096801F001014C
:1019300011B10121416101E00021416138490839BB
:10194000096801F08071B1F1807F02D102218161CB
:1019500001E0012181613249091F096801F4800217
:10196000C2612F49091F096801F03F0202622C4938
:10197000091F096847F6C072114092FAA2F2B2FA42
:1019800082F2D14041622649091F096801F44031C1
:1019900001F5803149004FF4403292FAA2F2B2FAD6
:1019A00082F2D14081621E49091F096801F070610D
:1019B0004FF0706292FAA2F2B2FA82F2D140C162A2
:1019C00070470F220260164A126802F0030242605A
:1019D000134A126802F0F0028260114A126802F49F
:1019E000E052C2600E4A126802F46042D2080261FC
:1019F0000E4A126802F00F020A607047704710B575
:101A00000748001D006800F08000802805D1FFF71E
:101A1000F5FF80200249891D087010BD0024F400E4
:101A200008380240A875000850000020003C024021
:101A30002DE9F041044600252068056925F440554C
:101A4000E0680543206805612068C56849F20C60BC
:101A500085432169A068084361690843E169084337
:101A600005432068C5602068456925F44075A06974
:101A7000054320684561E069B0F5004F72D1FE4929
:101A80002068884203D0FD492068884234D1FFF79E
:101A9000F2FE00EBC00101EB001061684900B0FBF1
:101AA000F1F06421B0FBF1F6FFF7E5FE00EBC001B9
:101AB00001EB001061684900B0FBF1F7FFF7DBFEB6
:101AC00000EBC00101EB001061684900B0FBF1F0D0
:101AD0006421B0FBF1F000EBC00101EB0010A7EBBB
:101AE0008000322101EB00106421B0FBF1F066F3BD
:101AF0001F1021688860A6E0FFF7ABFE00EBC00175
:101B000001EB001061684900B0FBF1F06421B0FB0B
:101B1000F1F6FFF79EFE00EBC00101EB00106168DB
:101B20004900B0FBF1F7FFF794FE00EBC00101EBB9
:101B3000001061684900B0FBF1F06421B0FBF1F0E6
:101B400000EBC00101EB0010A7EB8000322101EB9C
:101B500000106421B0FBF1F066F31F10216888606B
:101B600071E0FFE7C4492068884203D0C349206878
:101B7000884234D1FFF77FFE00EBC00101EB00107B
:101B800061688900B0FBF1F06421B0FBF1F6FFF76A
:101B900072FE00EBC00101EB001061688900B0FB30
:101BA000F1F7FFF768FE00EBC00101EB0010616880
:101BB0008900B0FBF1F06421B0FBF1F000EBC00153
:101BC00001EB0010A7EB8000322101EB0010642133
:101BD000B0FBF1F066F31F102168886033E0FFF777
:101BE00038FE00EBC00101EB001061688900B0FB1A
:101BF000F1F06421B0FBF1F6FFF72BFE00EBC00122
:101C000001EB001061688900B0FBF1F7FFF721FEDE
:101C100000EBC00101EB001061688900B0FBF1F03E
:101C20006421B0FBF1F000EBC00101EB0010A7EB69
:101C30008000322101EB00106421B0FBF1F066F36B
:101C40001F1021688860BDE8F081704710B5044618
:101C50000CB9012010BDA06900B100E000BF94F8EC
:101C6000390028B9002084F838002046FFF7EDFF3E
:101C7000022084F839002068C06820F400502168F0
:101C8000C8602046FFF7D4FE2068006920F4904029
:101C9000216808612068406920F02A0021684861B5
:101CA0002068C06840F400502168C8600020E063EC
:101CB000012084F839000020CCE710B504460CB9A7
:101CC000012010BD94F8390028B9002084F83800AC
:101CD0002046FFF7BAFF022084F839002068C06868
:101CE00020F400502168C8602046FFF7A1FE20685C
:101CF000006920F49040216808612068406920F064
:101D00002200216848612068406940F0080021688D
:101D100048612068C06840F400502168C860002015
:101D2000E063012084F839000020CAE770B504465A
:101D30000D460CB9012070BD94F8390028B9002077
:101D400084F838002046FFF780FF022084F839002D
:101D50002068C06820F400502168C8602046FFF762
:101D600067FE2068006920F400602168086120682F
:101D7000406920F02A00216848612068006940F429
:101D80008040216808612068006920F020002168F7
:101D90000861206800692843216808612068C068DC
:101DA00040F400502168C8600020E063012084F8FE
:101DB00039000020BFE770B504460D4616460CB941
:101DC000012070BD94F8390028B9002084F838004B
:101DD0002046FFF73AFF022084F839002068C068E7
:101DE00020F400502168C8602046FFF721FE2068DB
:101DF000006920F49040216808612068406920F063
:101E00002A00216848612068006920F00F002168DD
:101E10000861206800692843216808612068C0685B
:101E200020F400602168C8602068C06830432168E1
:101E3000C8602068C06840F400502168C860002075
:101E4000E063012084F839000020BAE7704710B53C
:101E500004460CB9012010BD022084F83900204648
:101E6000FFF7F4FF0020E06384F8390000BF84F836
:101E7000380000BF00BFEEE7001001400014014031
:101E80002DE9F04104460E4617461D464FF0000866
:101E900001F066F880469FBB2BE0681C48B32DB16B
:101EA00001F05EF8A0EB0800A84222D92068C068C3
:101EB00020F080002168C8602068C06820F0200001
:101EC0002168C8602068C06820F480702168C860FC
:101ED0002068406920F0010021684861012084F8F1
:101EE000390000BF002084F8380000BF0320BDE89F
:101EF000F081206800683040B04202D1012001E04A
:101F000003E000200028C8D035E02AE0681C40B378
:101F10002DB101F025F8A0EB0800A84221D92068D6
:101F2000C06820F080002168C8602068C06820F088
:101F300020002168C8602068C06820F48070216893
:101F4000C8602068406920F00100216848610120D4
:101F500084F8390000BF002084F8380000BF032057
:101F6000C5E7206800683040B04201D1012000E0A0
:101F700000200028CAD10020B9E72DE9F047044627
:101F80000D46164699464FF0000894F83980B8F18E
:101F9000010F02D0B8F1220F65D105B116B90120A9
:101FA000BDE8F08700BF94F83800012801D1022075
:101FB000F6E7012084F8380000BF0020E06394F8C1
:101FC0003900222803D1322084F8390002E012209F
:101FD00084F83900A684E68428E0E08C401EE08482
:101FE000A068B0F5805F14D14B46002280212046C6
:101FF000FFF746FF08B10320D2E72F463888C0F329
:10200000080021684860206908B9AD1C0EE06D1C0D
:102010000CE04B46002280212046FFF731FF08B13B
:102020000320BDE715F8010B21684860E08C00280B
:10203000D3DC4B46002240212046FFF721FF08B1A8
:102040000320ADE794F83900322803D1222084F828
:10205000390002E0012084F8390000BF002084F834
:10206000380000BF9CE702209AE72DE9F0470446BC
:102070000D46164699464FF0000894F83980B8F19D
:10208000010F02D0B8F1120F69D105B116B90120C4
:10209000BDE8F08700BF94F83800012801D1022084
:1020A000F6E7012084F8380000BF0020E06394F8D0
:1020B0003900122803D1322084F8390002E02220AE
:1020C00084F83900A685E68535E0E08D401EE08580
:1020D000A068B0F5805F18D14B4600222021204631
:1020E000FFF7CEFE08B10320D2E72F46206930B9B2
:1020F00020684068C0F308003880AD1C1BE02068F1
:102100004068C0B238806D1C15E04B46002220218B
:102110002046FFF7B5FE08B10320B9E7206920B9D2
:102120002068406805F8010B05E02068406800F071
:102130007F0005F8010BE08D0028C6DC94F839001B
:10214000322803D1122084F8390002E0012084F8FB
:10215000390000BF002084F8380000BF98E7022053
:1021600096E730B50346002493F83940012C01D09E
:10217000222C37D101B10AB9012030BD00BF93F83C
:102180003800012801D10220F7E7012083F8380048
:1021900000BF19629A84DA840020D86393F839006A
:1021A000222803D1322083F8390002E0122083F87C
:1021B00039001868C06840F480701D68E8601868CD
:1021C000406940F001001D68686100BF002083F88D
:1021D000380000BF1868C06840F080001D68E860E3
:1021E0000020CAE70220C8E730B50346002493F870
:1021F0003940012C01D0122C37D101B10AB901208C
:1022000030BD00BF93F83800012801D10220F7E764
:10221000012083F8380000BF99629A85DA85002092
:10222000D86393F83900122803D1322083F839009B
:1022300002E0222083F839001868C06840F48070FA
:102240001D68E8601868406940F001001D68686119
:1022500000BF002083F8380000BF1868C06840F055
:1022600020001D68E8600020CAE70220C8E7704728
:1022700070B50546AC6B0020E085E084012084F851
:102280003900E06B40F01000E0632046FFF7EFFFFD
:1022900070BD704770B50446A56B2846FFF7F9FF7F
:1022A00070BD704770B50546AC6B2868006800F4D7
:1022B000807070B90020E0842068406920F08000C0
:1022C000216848612068C06840F040002168C8600B
:1022D00002E02046FFF7E5FF70BDF7B5044615465E
:1022E000002794F83970012F01D0222F41D1019895
:1022F00000B10DB90120FEBD00BF94F838000128DF
:1023000001D10220F7E7012084F8380000BF0198CE
:102310002062A584E5840020E06394F83900222837
:1023200003D1322084F8390002E0122084F8390009
:10233000F748216BC863F748216B0864F648216BA6
:10234000886401AE23681A1D31682B46206BFEF7A6
:1023500063FA6FF04000216808602068406940F02F
:1023600080002168486100BF002084F8380000BF69
:10237000C1E70220BFE7704770B50446A56B284649
:10238000FFF7F9FF70BD704770B50546AC6B286864
:10239000006800F4807090B90020E08520684069F2
:1023A00020F040002168486194F83900322803D1B8
:1023B000122084F8390002E0012084F83900204618
:1023C000FFF7E1FF70BDF7B504461546002794F806
:1023D0003970012F01D0122F3CD1019800B10DB9F5
:1023E0000120FEBD00BF94F83800012801D1022071
:1023F000F7E7012084F8380000BF0198A062A585A6
:102400000020E06394F83900122803D1322084F8C8
:10241000390002E0222084F83900C048616BC863AB
:10242000BF48616B0864BC48616B886401AE326868
:102430002368191D2B46606BFEF7EEF92068406992
:1024400040F040002168486100BF002084F8380057
:1024500000BFC6E70220C4E7014600BF91F838007C
:10246000012801D102207047012081F8380000BF07
:1024700091F83900122806D10868406920F08000E0
:102480000A6850611AE091F83900222806D10868DC
:10249000406920F040000A6850610FE091F839006F
:1024A00032280BD10868406920F080000A6850612A
:1024B0000868406920F040000A68506100BF0020B1
:1024C00081F8380000BF00BFCDE708B5014600BF66
:1024D00091F83800012801D1022008BD012081F8BF
:1024E000380000BF91F83900122806D10868406909
:1024F00040F080000A6850612CE091F839002228F1
:102500000FD100BF0868006800900868406800901C
:1025100000BF00BF0868406940F040000A68506191
:1025200018E091F83900322814D100BF086800681B
:10253000009008684068009000BF00BF08684069CC
:1025400040F080000A6850610868406940F040002F
:102550000A68506100BF002081F8380000BF00BF4A
:10256000BBE710B504462068406920F08000216870
:1025700048612068406920F0400021684861206B74
:1025800010B1206BFEF77DF9606B10B1606BFEF748
:1025900078F9012084F83900002010BD10B50446F8
:1025A0002068C06820F040002168C86094F83900B5
:1025B000322803D1222084F839000EE02068C06858
:1025C00020F480702168C8602068406920F0010014
:1025D00021684861012084F839002046FFF761FE38
:1025E000002010BD10B50146002391F83930122BA0
:1025F00001D0322B2CD18868B0F5805F0FD10A6AE8
:102600001088C0F308000C686060086918B9086A8F
:10261000801C086209E0086A401C086205E00C6A38
:10262000601C086220780C686060C88C401E80B214
:10263000C88458B90868C06820F080000C68E06061
:102640000868C06840F040000C68E060002010BDE1
:102650000220FCE770B50446002694F83960222E6B
:1026600001D0322E52D1A068B0F5805F13D1A56A97
:10267000206940B920684068C0F308002880A06A3B
:10268000801CA06219E020684068C0B22880A06A5F
:10269000401CA06211E0206938B920684068C1B2CE
:1026A000A26A501CA062117007E02068406800F028
:1026B0007F01A26A501CA0621170E08D401E80B2A2
:1026C000E08508BB2068C06820F020002168C86051
:1026D00094F83900322803D1122084F839000EE032
:1026E0002068C06820F480702168C8602068406954
:1026F00020F0010021684861012084F8390020465B
:10270000FFF741FE002070BD0020FCE70220FAE741
:10271000A5220008952200087122000889230008DC
:1027200079230008F8B504460025002620680068D3
:1027300000F001052068C06800F480766DB166B1D4
:1027400000BF20680068009020684068009000BFCB
:1027500000BFE06B40F00100E06320680068C0F358
:1027600040052068406900F001066DB166B100BF08
:1027700020680068009020684068009000BF00BF9B
:10278000E06B40F00400E06320680068C0F380055F
:102790002068406900F001066DB166B100BF206895
:1027A0000068009020684068009000BF00BFE06BA8
:1027B00040F00200E06320680068C0F3C0052068B4
:1027C000406900F001066DB166B100BF2068006885
:1027D000009020684068009000BF00BFE06B40F0B0
:1027E0000800E06320680068C0F340152068C068F6
:1027F00000F020061DB116B12046FFF72BFF206820
:102800000068C0F3C0152068C06800F080061DB1E4
:1028100016B12046FFF7E6FE20680068C0F3801579
:102820002068C06800F040061DB116B12046FFF7D1
:10283000B5FEE06B28B1012084F839002046FFF78F
:1028400016FDF8BD014600BF91F83800012801D1FE
:1028500002207047012081F8380000BF022081F873
:1028600039000868C06840F001000A68D0600120A3
:1028700081F8390000BF002081F8380000BF00BF98
:10288000E7E7014600BF91F83800012801D1022096
:102890007047012081F8380000BF022081F839001C
:1028A0000868C06840F002000A68D060012081F822
:1028B000390000BF002081F8380000BF00BFE7E703
:1028C000014600BF91F83800012801D1022070476D
:1028D000012081F8380000BF022081F83900086823
:1028E000C06820F002000A68D060012081F8390039
:1028F00000BF002081F8380000BF00BFE7E70146B5
:10290000002200BF91F83800012801D10220704751
:10291000012081F8380000BF022081F839000868E2
:10292000C26822F00C0242F008020868C26001206E
:1029300081F8390000BF002081F8380000BF00BFD7
:10294000E5E70146002200BF91F83800012801D1D7
:1029500002207047012081F8380000BF022081F872
:1029600039000868C26822F00C0242F004020868CC
:10297000C260012081F8390000BF002081F83800D2
:1029800000BF00BFE5E7014691F8390070470146F6
:10299000C86B704700B593B000BF2648006840F090
:1029A0008050244908600846006800F0805001907B
:1029B00000BF00BF00BF2048006840F440401E49EF
:1029C00008600846006800F44040019000BF00BF66
:1029D000012002900390002005904FF4800109919E
:1029E0000220089008210A914FF4C8710B9104212C
:1029F0000C9107210D9102A8FEF701FB10B10120F7
:102A000013B000BD02200F900020109007200E9000
:102A10000E9840F008000E904FF480501190002066
:102A2000129006210EA8FEF7ECFC08B10120E7E7A2
:102A30000020E5E7403802400070004001464FF4B6
:102A40000030081AC0F38F2070472DE9F043044688
:102A50000E461546DDE907892046FFF7EFFFC7B2AE
:102A6000002243E001209040304000B93CE0B148F2
:102A700030F81700012191400843AE4921F81700B2
:102A8000E0684FEA420C032101FA0CF1884351003F
:102A900008FA01F10843E06020684FEA420C032184
:102AA00001FA0CF18843510005FA01F10843206056
:102AB000012D01D0022D16D161680120904080B215
:102AC00021EA000003FA02F189B208436060A068BD
:102AD0004FEA420C032101FA0CF18843510009FA34
:102AE00001F10843A06000BF501CC2B2102AB9DB3C
:102AF000BDE8F08300B502461046FFF79FFF0121B5
:102B000001FA00F08C49096808438B49086000BD50
:102B10002DE9FC4305460C4616461F46DDE90989AA
:102B20000CB9BDE8FC832846FFF7E4FF3B4632467C
:102B300021462846CDE90089FFF787FF00BFF0E76F
:102B40002DE9FC4705460E4617469846DDE90A9AE8
:102B50000EB9BDE8FC872846FFF7CCFF00241AE039
:102B60000120A040304000B914E0E10805F1200048
:102B700050F821006107CA0E0F2191408843610778
:102B8000C90E0AFA01F10843E20805F1200141F8F3
:102B9000220000BF641C102CE2D33B4602223146C7
:102BA0002846CDE90089FFF750FF00BFD1E770B597
:102BB00003460C461846FFF741FFC5B2002214E059
:102BC00001209040204070B1186856000321B140A8
:102BD00008431860574830F8150001219140884398
:102BE000544921F81500501CC2B2102AE8DB70BD10
:102BF00030B5024600200BE0012383400B402BB18F
:102C0000136845000324AC40A3431360431CD8B2AF
:102C10001028F1DB30BD30B5024600200FE0012363
:102C200083400B404BB1136845000324AC40A343E1
:102C300045000124AC4023431360431CD8B2102844
:102C4000EDDB30BD30B5024600200BE001238340B0
:102C50000B402BB1136845000324AC4023431360A1
:102C6000431CD8B21028F1DB30BD30B5024600203D
:102C700011E0012383400B4003B90AE013684500CB
:102C80000324AC40A34345000224AC40234313601B
:102C900000BF431CD8B21028EBDB30BD70B5034633
:102CA000002011E0012484400C4004B90AE0DC68F3
:102CB00046000325B540AC43450002FA05F52C4318
:102CC000DC6000BF441CE0B21028EBDB70BD41F4B7
:102CD0008032C261C161C261C369C3697047014684
:102CE000002002E0421C90B249100129FADC704732
:102CF00000B502461046FFF7A1FE012181400E48B3
:102D0000006888430C49086000BD00B502461046C3
:102D1000FFF794FE074931F8100000BD00B50246E8
:102D20001046FFF78BFE034931F81000C04380B214
:102D300000BD000074000020303802409748006851
:102D400020F08070954A10601046006840F0807056
:102D500010609348006820F00100914A106010460E
:102D6000006840F00100106000205060104641688B
:102D700000BF00BF8A484068401A70472DE9F047FD
:102D800005460E4617469846DDF82090854800789F
:102D9000052802DB0020BDE8F087142004F0CAFB00
:102DA00004460CB90020F6E765606068A0602078F2
:102DB00066F300002070207867F341002070C4F8AB
:102DC0000C80C4F81090774801780078401C754A50
:102DD0001070101D40F821402046DCE72DE9F0413D
:102DE0000646002408E06F48001D50F82400B04259
:102DF00000D105E0601CC4B26A480078A042F2DC51
:102E000000BF68480078A04201D1BDE8F081654864
:102E1000001D50F8247000BFEFF31080054672B615
:102E200008E06048001D611C50F8211040F8241093
:102E3000601CC4B25B480078401EA042F1DC5948D7
:102E40000078401E57490870384604F04BFB05B91E
:102E500062B600BFD9E7017821F002010170704726
:102E6000017821F00201891C01707047416881607E
:102E7000704709B1012200E00022037862F30003E9
:102E80000370704741607047704710B5464800684E
:102E9000401C454908604548006820B14348006827
:102EA000401E42490860002453E03E48001D50F88F
:102EB000240000284BD03B48001D50F82400007827
:102EC000C0F34000F0B33748001D50F8240080687C
:102ED00050B13448001D50F824008068401E31492C
:102EE000091D51F8241088602E48001D50F8240058
:102EF000806838BB2B4B1B1D53F824301969294BB4
:102F00001B1D53F8240053F82430DA6890472548F5
:102F1000001D50F8240041682248001D50F824008C
:102F200081602048001D50F82400007800F0010066
:102F300040B91C48001D50F82400007820F0020120
:102F4000184800E003E0001D50F824000170601CE8
:102F5000C4B214480078A042A7DC00F020FD10BDE8
:102F600011480068704700B5014600BFEFF30580C7
:102F700048B9FFF7F5FF024600BFFFF7F1FF801ADF
:102F80008842FAD309E006E04FF0E020006900F43F
:102F9000803000B1491E0029F6D100BDFCED00E0F3
:102FA000001000E090000020080000200400002035
:102FB0001CB5032000210B460122CDE90010202181
:102FC0001E48FFF7A5FD4FF400101C4988611CBD89
:102FD0001CB50020012103460246CDE9001049033B
:102FE0001748FFF795FD1CBD154810300068C0F369
:102FF000403080F0010030B11248007830B9012033
:1030000010490870704700200E4908700020F9E749
:103010000B4810300068C0F3403080F0010038B930
:103020000848007838B10020064908700120704730
:103030000120044908700020F9E700000000024068
:10304000000802400C00002070B504460D461646EC
:103050001421204603F0E7FE2580A6600A20607355
:10306000A06868B9284604F065FAA060A06818B99D
:1030700000202080012070BD207B40F002002073E2
:10308000207B40F0010020730020F4E710B50446D7
:1030900004B910BD207B00F0020010B1A06804F05C
:1030A00021FA00202073208000BFF2E770B50346AC
:1030B00000240BB9002070BD58881D88A84201DB90
:1030C000002058801BE05D889888401E854206D00D
:1030D000988828B95D881888401E854200D113E081
:1030E00011F8015B5E88701C588098688555601CDB
:1030F000C4B258881D88A84201DB00205880101EE9
:10310000A2F10105AAB2DED100BF2046D3E730B557
:10311000034600240BB9002030BD98881D88A842C2
:1031200001DB0020988013E098885D88A84200D1D8
:1031300013E09D88681C98809868405D01F8010B39
:10314000601C84B298881D88A84201DB002098800A
:10315000101EA2F10105AAB2E6D100BF2046DBE7AE
:1031600030B5014609B9002030BD4A888B889A42A3
:1031700000D10C88934200D99C1A9A4202D908883F
:10318000D51A441B601E80B2EEE730B503460BB97A
:10319000002030BD59889A88914200D10024914284
:1031A00000D98C1A8A4202D91888551A441BA0B239
:1031B000EFE700B9704700214180818000BFF9E747
:1031C0002DE9F04104460F464FF000081CB94FF0BE
:1031D000FF30BDE8F0812046FFF7D7FF0546A688FF
:1031E00012E02088B04200DC0026A068805DB84272
:1031F00002D10FFA88F0ECE7701C86B2681E85B227
:1032000008F101001FFA80F8002DEADC4FF0FF30D2
:10321000DFE72DE9F04F0446894690464FF0000A5B
:10322000D3462CB12046FFF7B0FF0646404503DAEF
:103230004FF0FF30BDE8F08FA58835E02088A84228
:1032400000DC0025A068405D99F80010884201D19B
:103250004FF0010B681C85B2701E86B20AF10100A6
:103260001FFA80FABBF1000F1ED0012714E020885E
:10327000A84200DC0025A068405D19F807108842CC
:1032800004D0781E50441FFA80FA07E0681C85B20B
:10329000701E86B2781C87B24745E8DB00BF474501
:1032A00002D10FFA8AF0C5E7002EC7DC4FF0FF30DD
:1032B000C0E770B505460C46204603F0E9FD86B22E
:1032C000324621462846FFF7F1FE70BD2DE9F84150
:1032D00006460D461746002416B90020BDE8F881C1
:1032E0003046FFF73DFF8046B8F1000F0DD0717BEF
:1032F0003046FFF765FF002809DAB8F1000F06D065
:103300003046FFF742FFB84201DA0020E6E70EE060
:10331000012269463046FFF7FAFE9DF80000285565
:10332000285D717B884200D104E0601C84B2781E65
:10333000A042EDDC00BF781EA04202D1002028553B
:1033400004E00021601C80B2044629542046C5E7F1
:1033500070B503460C46154600220BB9002070BD1F
:103360005E88998807E0481C81B2501C82B2188898
:10337000884200DC0021A24201DA8E42F3D1A2424F
:1033800004D19868405C28700120E8E70020E6E757
:103390000146FA4A914200D10020F94A914200D1F7
:1033A0000120F84A914200D10620704770471CB5B1
:1033B00004464CB90820032101230022CDE9001066
:1033C000C021F148FFF7BCFB032C03D10821ED48D5
:1033D000FFF7ECFF1CBD1CB504464CB907200321C8
:1033E00001230022CDE900100C21E848FFF7A8FBDB
:1033F000012C09D10720032101230022CDE900106F
:103400006021E348FFF79CFB032C03D10721DC4834
:10341000FFF7CCFF1CBD1CB504464CB907200321A7
:1034200001230022CDE900104902D848FFF788FBAC
:10343000012C09D10720032101230022CDE900102E
:10344000C021D448FFF77CFB032C03D10721CB48D4
:10345000FFF7ACFF1CBD2DE9F04F91B004460D46BF
:1034600016461F46DDE91BABDDF86890C348844271
:103470001FD100BFC848006840F01000C64908606E
:103480000846006800F01000009000BF00BFC2486E
:103490002038006840F01000BF4920390860084615
:1034A000006820F0100008602846FFF7B4FF4FF0D6
:1034B0002508B348844221D100BFB748001F0068E7
:1034C00040F40030B449091F08600846006800F461
:1034D0000030009000BF00BFAF482438006840F4BF
:1034E0000030AD49243908600846006820F40030F7
:1034F00008602846FFF76FFF4FF02608A148844276
:103500001FD100BFA448006840F02000A249086015
:103510000846006800F02000009000BF00BF9E48F1
:103520002038006840F020009B4920390860084698
:10353000006820F0200008602846FFF738FF4FF0B1
:103540004708019402960797CDF81890CDF814A07B
:10355000CDF810B01D980390002108914046FCF76B
:1035600072FF2046FFF714FF0246062100904046F6
:10357000FCF71EFF4046FCF759FF4046FDF73DF8BB
:1035800001A8FEF763FBE06840F02000E06011B0A6
:10359000BDE8F08F7FB504460D4616467748844255
:1035A0000BD100200C23CDE90030029003463246B7
:1035B000294603902046FFF74EFF714884420BD105
:1035C00000200C23CDE90030029003463246294604
:1035D00003902046FFF73FFF6A4884420BD100204A
:1035E0000C23CDE900300290034632462946039071
:1035F0002046FFF730FF7FBD2DE9FF4104460D4611
:1036000016461F465D4884420BD100200C23CDE9AD
:10361000003002903B463246294603902046FFF791
:103620001AFF574884420BD100200C23CDE900300B
:1036300002903B463246294603902046FFF70BFF97
:10364000504884420BD100200C23CDE90030029079
:103650003B463246294603902046FFF7FCFEBDE874
:10366000FF810146454A914200D14C48444A91426B
:1036700000D14B48434A914200D14A48704738B57F
:1036800004462046FFF7EDFF054601226946FFF795
:103690003EFD10B19DF8000038BD0020FCE72DE98B
:1036A000F04104460D4616462046FFF7DAFF07466E
:1036B00032462946FFF70AFEBDE8F0810EE000BF62
:1036C000026802F08002002AFAD011F8012B426051
:1036D00000BF026802F08002002AFAD00A78002AAD
:1036E000EDD1704710B50EE000BF036803F0800312
:1036F000002BFAD011F8013B436000BF036803F0D0
:103700008003002BFAD0131EA2F10104A2B2EBD168
:1037100010BD70B504460D462046FFF7A2FF0646D1
:103720002946FFF74DFD70BD2DE9F04105460C46D9
:10373000204603F0ADFB86B22846FFF792FF07460E
:1037400032462146FFF765FDBDE8F08170B50446BD
:103750002046FFF786FF0546FFF717FD08B9012051
:1037600070BD0020FCE770B504462046FFF779FFE6
:103770000546FFF7F5FCB8B9012070BD0010014007
:1037800000440040001401400008024000000240D4
:10379000000C0240000402404438024010000020A7
:1037A00024000020380000200020E6E770B5044621
:1037B0002046FFF756FF0546FFF7E7FC70BD70B5E2
:1037C00004462046FFF74DFF0546FFF7F2FC70BDAB
:1037D00070B505460C462846FFF743FF447370BD9D
:1037E00013B50446012201A92046FFF75FFC1CBD6A
:1037F00038B505460C463848056000BF00680068CB
:103800000090354800684068009000BF00BF00BFCE
:1038100031480068006800902F48006840680090B8
:1038200000BF00BF00BF2C480068006800902A4815
:1038300000684068009000BF00BF00BF26480068D5
:1038400000680090244800684068009000BF00BFF6
:1038500000BF21480068006800901F480068406869
:10386000009000BF00BF2046FCF7C7FE38BD10B572
:103870001A48006800F0200020B118494968C8B211
:1038800003F0AFFA25211548FFF7B2FF10BD10B5C0
:103890001348006800F0200030B11148001D006896
:1038A000C1B21048FFF79CFF26210D48FFF7A0FF8B
:1038B00010BD10B50C48006800F0200030B10A4877
:1038C000001D0068C1B20948FFF78AFF472106487A
:1038D000FFF78EFF10BD000008010020001001401E
:1038E0000044004024000020001401403800002063
:1038F00008B5FFF74FF8FCF77EFCFFF759FBFFF721
:1039000067FBFFF71BFA4FF461220021A448FFF781
:1039100041FEA4A003F07CFB02E0AAA003F078FB28
:103920004FF4E131B14802F0C1F80028F5D100BFF1
:103930000321AE4802F081FA0028F9D100BF5021DE
:10394000AA4802F0F8FB0028F9D1A9A003F060FB17
:10395000A64802F060FCA54802F01AFEA34801F058
:1039600066FFAAA2B0A1A14802F077FC9F4801F02F
:103970005EFF9E4802F0B9FC10E09C4801F0F7FDA4
:10398000FFF732FB50B100BF00205023AAA2B0A124
:103990000090964802F0CBFE0028F5D1EDE710B577
:1039A0000121924802F01EFA10BD08B5C2B2009281
:1039B0007B4AD26802F400528AB100BF784A12688A
:1039C00002F08002002AF9D09DF80020744B5A6062
:1039D00000BF734A126802F08002002AF9D000BFCB
:1039E00008BD10B504469FA003F012FB10BD10B532
:1039F0000446A1A003F00CFB10BD10B50446A5A021
:103A000003F006FB10BD10B50446A8A003F000FBB0
:103A100010BD10B5044694F8BA14AAA003F0F8FA41
:103A200010BD70B50446B4A003F0F2FA204602F0CF
:103A300066FC05462946B7A003F0EAFA70BD38B522
:103A4000044640F27730005D009040F27630035D2E
:103A5000401E025D94F87413B5A003F0D9FA38BD86
:103A600010B50446BCA003F0D3FA10BD70B50646ED
:103A70000C46002594F80C13BBA003F0C9FA00BF54
:103A80000CE0C5EBC50000EB451004EB4000421C08
:103A90002946BEA003F0BCFA681CC5B294F80C031A
:103AA000A842EEDC70BD70B505460C4604F1240159
:103AB000B9A003F0ADFA2146284602F079FA70BDAC
:103AC00070B505460C466178C0A003F0A1FA70BD40
:103AD0002DE9F04105460E4614461F46CAA1204670
:103AE00003F0A6FACDA1204603F0A8F9D3A1204601
:103AF00003F0A4F944A1204603F0A0F9204603F006
:103B0000C7F980B2BDE8F08170B504460D46D0A07B
:103B100003F07EFA70BD70B505460C466178D5A0FD
:103B200003F076FA70BDF8B505460C461646206AD5
:103B3000009004F12401DB48D4E9032303F068FA80
:103B400094F8690038B1D8480068D8490860D84866
:103B5000216A03F05DFAF8BD70B506460C4661783F
:103B6000D448236A226903F053FACF480068CF494A
:103B70000968401ACD49086020690968B0FBF1F571
:103B80002A46CA480168CCA003F042FA70BD70B55D
:103B900005460C466178D2A003F03AFA70BD0000E9
:103BA000004400404553503832363620415420639B
:103BB0006F6D6D616E6473207061727365720D0A52
:103BC0000000000050726F626C656D73207769743D
:103BD0006820696E697469616C697A696E67206DC5
:103BE0006F64756C65210D0A00000000480100201B
:103BF000496E697469616C697A6174696F6E206677
:103C0000696E6973686564210D0A00006D616A65FB
:103C1000726C655F696E7465726E65745F707269EF
:103C200076617465000000004D616A65726C652004
:103C30004C414E320000000073746D333266342DF7
:103C4000646973636F766572792E636F6D0000002F
:103C500073746D333266345F646973636F76657253
:103C60007900000044657669636520697320726598
:103C70006164790D0A0000005761746368646F67BE
:103C8000207265736574206465746563746564216E
:103C90000D0A0000576966692069732064697363BF
:103CA0006F6E6E6563746564210D0A0057696669FD
:103CB00020697320636F6E6E6563746564210D0AFD
:103CC00000000000436F6E6E656374696F6E207450
:103CD0006F2077696669206E6574776F726B2068F4
:103CE0006173206661696C65642E20526561736F33
:103CF0006E2025640D0A00005769666920676F749D
:103D000020616E20495020616464726573730D0AEE
:103D1000000000004772616262696E6720495020AE
:103D20007374617475733A2025640D0A00000000F5
:103D3000576520686176652076616C69642049501A
:103D400020616464726573733A2025642E25642EA5
:103D500025642E25640D0A00444843502074696D83
:103D6000656F7574210D0A005765206861766520BE
:103D70006465746563746564202564204150207314
:103D8000746174696F6E730D0A0000002532643A25
:103D90002025730D0A000000436C69656E74206372
:103DA0006F6E6E656374656420746F2073657276E0
:103DB00065722120436F6E6E656374696F6E206E4D
:103DC000756D6265723A2025730D0A00416E20659B
:103DD00072726F72206F63637572656420776865B5
:103DE0006E20747279696E6720746F20636F6E6ED7
:103DF000656374206F6E20636F6E6E656374696FA8
:103E00006E3A2025640D0A00474554202F2048545F
:103E100054502F312E310D0A00000000486F73748A
:103E20003A2073746D333266342D646973636F7630
:103E30006572792E636F6D0D0A000000436F6E6E20
:103E4000656374696F6E3A20636C6F73650D0A0069
:103E500044617461207375636365737366756C6C1C
:103E6000792073656E7420617320636C69656E746C
:103E7000210D0A004572726F72207768696C6520A7
:103E800073656E64696E672064617461206F6E2073
:103E9000636F6E6E656374696F6E202564210D0A11
:103EA00000000000C8750008080000204C00002039
:103EB000807600082076000854696D6520666F7270
:103EC00020646174613A202575206D733B20737006
:103ED0006565643A202564206B622F730D0A00002B
:103EE00054696D656F7574207265616368656420DF
:103EF0006F6E20636F6E6E656374696F6E3A202516
:103F0000640D0A00704700BFFEE700BFFEE700BF78
:103F1000FEE700BFFEE7704770477047704710B577
:103F2000FEF7B3FF10BD00003F48006840F470008A
:103F30003D4908603D48006840F001003B49086089
:103F400000203A490831086038480068384908407C
:103F5000364908603748091D0860081F006820F4CA
:103F60008020091F0860002030490C3108604FF0A4
:103F700000602D4980390860704770B5002000222C
:103F8000022300240221294D08352D6805F00C007C
:103F900020B1042806D0082834D107E0264D274E4A
:103FA000356033E0264D254E35602FE01F4D2D1D29
:103FB0002D68C5F380541D4D2D1D2D6805F03F0162
:103FC00054B11F4DB5FBF1F5184E361D3668C6F3DA
:103FD000881605FB06F209E0174DB5FBF1F5134E07
:103FE000361D3668C6F3881605FB06F20F4D2D1DEB
:103FF0002D68C5F301456D1C6B00B2FBF3F50F4E48
:10400000356003E00C4D0D4E356000BF00BF074D1D
:1040100008352D68C5F303150A4E705D074D2D68F0
:10402000C540064E356070BD88ED00E000380240A6
:10403000FFFFF6FE103000240024F40050000020A2
:1040400000127A00B87500087047704770B50446D2
:10405000002553E06068D0BB05EBC50000EB4001D4
:1040600004F5AC7010F8210088B305EBC50000EB37
:10407000400104F5AC7000EB8100007F38B30021F3
:1040800005EBC50000EB400204F5AC7000EB8200CC
:10409000017705EBC50000EB400104F5AC7000EBC7
:1040A00081008078A0B105EBC50000EB400304F56A
:1040B000AC7000EB8300826905EBC50000EB4003A8
:1040C00004F5AC7000EB83012046FFF72CFD13E0F4
:1040D00005EBC50000EB400304F5AC7000EB83007A
:1040E000826905EBC50000EB400304F5AC7000EB02
:1040F00083012046FFF7A8FF681CC5B2052DA9DB88
:1041000070BD70B5024600250023002410782D28CC
:1041100003D10125521C601CC4B207E0107830386E
:104120000A2603FB0603521C601CC4B21078302818
:1041300002DB10783928F1DD01B10C700DB1584265
:1041400070BD1846FCE770470146302905DB392968
:1041500003DCA1F13000C0B27047612905DB66299C
:1041600003DCA1F15700C0B2F6E7412905DB46297F
:1041700003DCA1F13700C0B2EEE70020ECE7014616
:10418000302903DB392901DC01207047612903DB79
:10419000662901DC0120F8E7412903DB462901DC1F
:1041A0000120F2E70020F0E72DE9F04104460D463A
:1041B0000026002708E02078FFF7C6FF102106FB45
:1041C0000106641C781CC7B22078FFF7D8FF0028CE
:1041D000F1D105B12F703046BDE8F0812DE9F843EB
:1041E00081460E4614464FF000080020009000253E
:1041F000F8A1484602F086FE074618E069463846B0
:10420000FFF7D2FFC2B24046411C01F0FF08325412
:104210009DF800002844C5B2B8F1060F00DB08E0A5
:10422000681CC5B2EBA1002002F06CFE0746002F0F
:10423000E4D100BF04B12570BDE8F8832DE9F04357
:1042400085B006460F4614460025A9460F22314682
:10425000684602F0CFFD00208DF80F00DEA1684611
:1042600002F050FE804618E004A94046FFF749FFDF
:10427000C2B24846411C01F0FF093A549DF81000B3
:104280002844C5B2B9F1040F00DB09E0681CC5B2CF
:10429000D1A1002002F036FE8046B8F1000FE3D134
:1042A00000BF04B1257005B0BDE8F08338B5044601
:1042B0000D4694F820050A2800DB38BD94F8200547
:1042C00000EB800204F2BC4000EB42016A46284643
:1042D000FFF7B4FF94F8202502EB820304F2BC42FE
:1042E00002EB4302111D9DF80020521CA818002269
:1042F000FFF774FF94F82005401C84F8200500BFE8
:10430000DBE7704770477047704770472DE9F04111
:1043100004460F464FF000080E223946AFA002F0C7
:10432000E2FD20B90E2501264FF016086BE013229E
:104330003946AEA002F0D7FD20B9132502264FF072
:10434000160860E013223946ADA002F0CCFD20B97A
:10435000132503264FF0160855E00A223946ADA072
:1043600002F0C1FD20B90A2501264FF016084AE0E7
:104370000F223946AAA002F0B6FD20B90F25022669
:104380004FF016083FE00F223946A9A002F0ABFD1E
:1043900020B90F2503264FF0160834E00D223946C8
:1043A000A7A002F0A0FD10B90D2501262BE01222D6
:1043B0003946A7A002F097FD10B91225022622E087
:1043C00012223946A7A002F08EFD10B9122503264D
:1043D00019E009223946A8A002F085FD10B9092587
:1043E000012610E00E223946A6A002F07CFD10B98D
:1043F0000E25022607E00E223946A6A002F073FD24
:1044000008B90E250326B8F1160F35D1012E04D0B8
:10441000022E11D0032E2DD11DE0A91C78180022E8
:1044200004F55D71FFF70AFF94F8240520F0010000
:10443000401C84F824051EE0A91C7818002204F50D
:104440005F71FFF7FBFE94F8240520F00200801C4A
:1044500084F824050FE0A91C7818002204F55E7189
:10446000FFF7ECFE94F8240520F00400001D84F80A
:10447000240500E000BF35E0012E04D0022E11D04B
:10448000032E2DD11DE0A91C7818002204F28631DC
:10449000FFF7D4FE94F8240520F01000103084F8C3
:1044A00024051EE0A91C7818002204F28E31FFF7C3
:1044B000C5FE94F8240520F02000203084F824055F
:1044C0000FE0A91C7818002204F28A31FFF7B6FE2B
:1044D00094F8240520F04000403084F8240500E0E2
:1044E00000BF00BFBDE8F0817047F8B505460F4634
:1044F0003C4604E020783A2800D103E0641C207890
:104500000028F7D100BF04B9F8BD641C002085F86D
:104510009A032078222800D1641C002607E014F8B2
:10452000012B3046711CCEB205F29A310A54207824
:1045300040B120782228F2D160782C28EFD1A078E1
:104540002228ECD100223046711CCEB205F29A31FD
:104550000A54E41C002607E014F8012B3146701CB5
:10456000C6B205F2DB304254207828B120782228E8
:10457000F2D160782C28EFD100223146701CC6B2EF
:1045800005F2DB304254A41C69462046FFF7B9FD12
:1045900085F81D049DF80000401C0444694620462F
:1045A000FFF7AFFD85F81C049DF80000401C044493
:1045B00069462046FFF7A5FD85F81E049DF800001A
:1045C000401C044469462046FFF79BFD85F81F0404
:1045D00000BF99E73A0000002E0000002B4349502D
:1045E0005354415F4355523A697000002B43495080
:1045F0005354415F4355523A6E65746D61736B005D
:104600002B4349505354415F4355523A6761746597
:10461000776179002B4349505354413A6970000047
:104620002B4349505354413A6E65746D61736B006E
:104630002B4349505354413A67617465776179005F
:104640002B43495041505F4355523A697000000076
:104650002B43495041505F4355523A6E65746D612A
:10466000736B00002B43495041505F4355523A67EA
:1046700061746577617900002B43495041503A6974
:10468000700000002B43495041503A6E65746D61D3
:10469000736B00002B43495041503A676174657752
:1046A0006179000070472DE9F04180460D460726EC
:1046B0000027FE4890F80C03052801DBBDE8F081D7
:1046C000A85D282801D1701CC6B2A819F8A102F073
:1046D00019FC044694E03846791CCFB2072876D2FC
:1046E000DFE800F00413293B5364760000212046E4
:1046F000FFF707FDED4991F80C13C1EBC10202EB86
:104700004111EA4A02F8110074E0641C204602F0EC
:10471000BFFB401E00212154E44991F80C13C1EB6A
:10472000C10202EB4111E14A02EB4101481C214662
:1047300002F0D0FB5EE000212046FFF7E2FC00B271
:10474000DA4991F80C13C1EBC10202EB4111D74ACF
:1047500002EB4101A1F842004CE0641C204602F04B
:1047600097FB401E00212154D04890F80C03C0EB69
:10477000C00202EB4010CD4A02EB400000F14401C0
:1047800000222046FFF72AFD34E000212046FFF7F3
:10479000B8FCC64991F80C13C1EBC10202EB411100
:1047A000C24A02EB410181F84A0023E00021204681
:1047B000FFF7A7FCBD4991F80C13C1EBC10202EB56
:1047C0004111BA4A02EB410181F84B0012E010E0BE
:1047D00000212046FFF795FCB44991F80C13C1EB7A
:1047E000C10202EB4111B14A02EB410181F84C00D8
:1047F00000E000BF00BFAEA1002002F083FB044632
:10480000002C7FF468AFA94890F80C03401CA7491E
:1048100081F80C0300BF51E7F8B505460E46344653
:10482000A4A1304602F016FB00B9F8BD00E0641CFC
:10483000207810B120782228F9D1641C002707E0E5
:1048400014F8012B3846791CCFB205F58E610A5455
:10485000207840B120782228F2D160782C28EFD13E
:10486000A0782228ECD100223846791CCFB205F579
:104870008E610A54E41C6A4640312046FFF7AEFCC4
:104880009DF80000801C044469462046FFF739FC6F
:1048900085F8B6049DF80000401C04446946204693
:1048A000FFF72FFC01B2A5F8B81400BFBDE77047B1
:1048B000704770472DE9F04705460E461746984663
:1048C000A946BA4600240BE009EB040042465146D3
:1048D00002F0F3FA18B909EB0400BDE8F087641C94
:1048E000B442F1D30020F8E7704770477047704733
:1048F000704770477047704770472DE9FC5F04466A
:104900000D4693469A460027D4F84C01C4F850014E
:10491000BAF1020F07D128780D2804D168780A2847
:1049200001D1BDE8FC9F6068002833D0BBF1010FC6
:1049300030D162A1284602F0B2FA00282AD061A143
:10494000284602F0ACFA28B361A1284602F0A7FA83
:1049500000B361A1284602F0A2FAD8B160A12846AE
:1049600002F09DFAB0B1042260A1284602F0BBFA21
:1049700080B104F1080002F08BFA81464A4604F146
:104980000801284602F0AFFA20B12946594802F042
:10499000A6F9C6E750A1284602F081FA10B92046D0
:1049A000FFF71FF854A1284602F079FA10B9204603
:1049B000FFF71DF82046FFF749FB52A1284602F0F9
:1049C0006EFA60B940F22550005D20F00400001D31
:1049D00040F2255108552046FFF715F832E04EA168
:1049E000284602F05CFAE0B940F22550005D20F064
:1049F000040140F225500155005D20F0080140F20D
:104A0000255001554A2104F58E6002F00CFA4FF44E
:104A1000077104F5AC7002F006FA2046FEF7EDFFD0
:104A200010E042A1284602F03AFA58B940F2255067
:104A3000005D20F00800083040F22551085520465E
:104A4000FEF7EFFF1FA1284602F004FA50B3002042
:104A50006060814685E009EBC90000EB400104F588
:104A6000AC7000EB8100407DE8B1002109EBC9008A
:104A700000EB400204F5AC7000EB8200417509EBDD
:104A8000C90000EB400104F5AC7000EB81008078B8
:104A900050B109EBC90000EB400204F5AC7000EB2B
:104AA00082014BE062E058E04CE000009C0C0020EA
:104AB0002C0000002B43574A41505F004F4B0D0A1A
:104AC0000000000053454E44204F4B0D0A000000EB
:104AD0004552524F520D0A0072656164790D0A0009
:104AE0006275737920702E2E2E0D0A002B495044CA
:104AF0003A000000740600207764742072657365C4
:104B0000740D0A005749464920434F4E4E454354C1
:104B100045440D0A000000005749464920444953C6
:104B2000434F4E4E4543540D0A0000005749464935
:104B300020474F542049500D0A0000002046FEF740
:104B4000E3FF0AE009EBC90000EB400204F5AC709A
:104B500000EB82012046FFF7C9FE09F1010000F0D9
:104B6000FF09B9F1050FFFF676AF00BF0422FEA1E1
:104B7000284602F0B8F900287ED1012084F82004EC
:104B800084F825B40527E85D3038C1B240F22440EE
:104B90000155F749005D00EBC00000EB400204F551
:104BA000AC7000EB8200816140F22440015D005D49
:104BB00000EBC00000EB400204F5AC7000EB82009B
:104BC0004170BF1CE81901A9FFF79BFA40F224418C
:104BD000095D01EBC10101EB410204F5AC7101EB90
:104BE0008201C86040F22440005D00EBC00000EB91
:104BF000400104F5AC7000EB81000069E0B90021D0
:104C000040F22440005D00EBC00000EB400204F5E0
:104C1000AC7000EB820080F86810012140F2244063
:104C2000005D00EBC00000EB400204F5AC7000EB4F
:104C3000820080F869100DE0002140F22440005D00
:104C400000EBC00000EB400204F5AC7000EB82000A
:104C500080F8691040F22440005D00EBC00000EBDA
:104C6000400104F5AC7000EB8100016940F2244082
:104C7000005D00EBC00000E0A2E000EB400204F5A4
:104C8000AC7000EB8200C068014440F22440005D3B
:104C900000EBC00000EB400204F5AC7000EB8200BA
:104CA00001619DF80400401C074440F22442125D5B
:104CB00002EBC20202EB420304F5AC7202EB830288
:104CC000911DE81901AAFFF7B9FA9DF80400401CEC
:104CD0000744E81901A9FFF714FA81B240F2244011
:104CE000005D00EBC00000EB400204F5AC7000EB8F
:104CF0008200818000BF002700E07F1CE85D3A2829
:104D0000FBD17F1CAAEB0702E91940F224431B5D8B
:104D100003EBC30303EB430C04F5AC7303EB8C030D
:104D2000986902F067F8AAEB070140F22440005DA1
:104D300000EBC00000EB400204F5AC7000EB820019
:104D4000C068814219D9002140F22440005D00EB87
:104D5000C00000EB400204F5AC7000EB82008269F9
:104D600040F22440005D00EBC00000EB400304F57E
:104D7000AC7000EB8300C0681154AAEB070081B24D
:104D800040F222400153801C005D00EBC00000EBAC
:104D9000400104F5AC7000EB8100C068B8420FD848
:104DA000002084F82004012140F22440005D00EB43
:104DB000C00000EB400204F5AC7000EB820001770C
:104DC0000A236CA251462846FFF774FD061E23D025
:104DD00016F8010C303800EBC00000EB400104F580
:104DE000AC7000EB8108012088F8000016F8010C77
:104DF000303888F8010098F8020048B160680A2845
:104E000001D10020606041462046FEF74CFE03E0E1
:104E100041462046FFF768FD59A1284602F01AF8DE
:104E200020B194F9BB145BA002F0F2F8092362A24E
:104E300051462846FFF73EFD061E7AD0B54278D08F
:104E4000681C86426FD116F8010C303800EBC000A8
:104E500000EB400104F5AC7000EB810090F802908B
:104E600016F8010C303800EBC00000EB400104F5EF
:104E7000AC7010F82100009000BF002116F8010D61
:104E8000303800EBC00000EB400204F5AC7000F8D5
:104E900022103078303800EBC00000EB400204F5FF
:104EA000AC7000EB820081703078303800EBC000CD
:104EB00000EB400204F5AC7000EB820080F8691052
:104EC00016F8010B303800EBC00000EB400204F58F
:104ED000AC7000EB820080F8681000BF0098F8B159
:104EE000B9F1000F0ED016F8010C303800EBC000FD
:104EF00000EB400204F5AC7000EB82012046FEF7A7
:104F00002BFE15E016F8010C303800EBC00000EB6A
:104F1000400204F5AC7000EB82012046FFF7C8FCAC
:104F200006E006E0FFE7711E0A22264801F0D4FDE4
:104F300000BF25A1284601F08DFF061E60D016F89F
:104F4000010C303800EBC00000EB400104F5AC7000
:104F500000EB810800BF002088F8000088F80200FC
:104F600088F8690038E000002B4950440000000038
:104F7000AA0F00202C434F4E4E4543540D0A00000B
:104F8000414C524541445920434F4E4E45435445B0
:104F9000440D0A00436F6E6E656374696F6E202561
:104FA0006420616C726561647920636F6E6E656305
:104FB000746564210D0A00002C434C4F5345440D89
:104FC0000A000000740600202C434F4E4E45435407
:104FD000204641494C0D0A0088F8680000BF16F8C9
:104FE000010C303888F8010098F8020040B1606880
:104FF0000A2801D10020606041462046FEF760FD8E
:1050000060681C2877D2DFE800F0760E4C17FEA00F
:10501000ADFDB6CDD6FC6376FBFAF9F8F739F6F5B7
:10502000778DF4F3F2F1AFF26C51284601F037FFBF
:1050300008B9002060605BE20722F7A1284601F072
:1050400052FF40B9F6A104F1080001F043FFE879EE
:10505000303884F8BA04AFF29C51284601F01FFFA3
:1050600008B900206060EEA1284601F018FF20B9C1
:10507000002060602046FEF7CCFC39E20B22EAA15A
:10508000284601F030FF18B929462046FFF7C4FB37
:10509000AFF2D851284601F002FF08B90020606045
:1050A00026E20722E3A1284601F01DFF18B9294690
:1050B0002046FFF7F8FAAFF2FC51284601F0EFFE68
:1050C00028B900206060DD492046FEF7CFFC0FE2E2
:1050D0000622DBA1284601F006FF18B92946204622
:1050E000FFF703FAAFF22C61284601F0D8FE08B9A9
:1050F00000206060FCE1FAE10722D3A1284601F01C
:10510000F2FE18B929462046FFF700F9AFF25461C4
:10511000284601F0C4FE20B9002060602046FEF75A
:105120008EFCE5E10622CAA1284601F0DCFE18B992
:1051300029462046FFF7EAF8AFF28061284601F0E1
:10514000AEFE08B900206060D2E1AFF2906128465F
:1051500001F0A5FE28B90020606094F8980384F857
:105160009903C5E1AFF2AC61284601F098FE08B999
:1051700000206060BCE1AFF2BC61284601F08FFE08
:1051800078B90820606040F22550005D20F00100F1
:10519000401C40F225510855AFA104F1080001F070
:1051A00099FEA5E1AFF2EC61284601F078FE08B95E
:1051B000002060609CE1AFF2FC61284601F06FFEC8
:1051C00008B900206060AFF2F861284601F067FE80
:1051D000F0BB0020606000BF002194F9BB0400EB2D
:1051E000C00000EB400204F5AC700DE067E15DE14A
:1051F000C1E0AAE051E147E17BE071E067E054E003
:105200004AE037E03FE0CCE000F8221094F9BB041C
:1052100000EBC00000EB400204F5AC7000EB820034
:10522000817094F9BB0400EBC00000EB400204F570
:10523000AC7000EB820080F8691094F9BB0400EBBD
:10524000C00000EB400204F5AC7000EB820000E00F
:105250000FE080F8681000BF94F9BB0400EBC000B9
:1052600000EB400204F5AC7000EB82012046FEF733
:1052700027FC3DE1AFF2BC71284601F010FE08B9F1
:105280000020606034E1AFF2CC71284601F007FEE7
:1052900008B9002060602BE1AFF2E071284601F010
:1052A000FEFD08B90020606022E1AFF2D47128460B
:1052B00001F0F5FD50B90020606040F22550005D1E
:1052C00020F00200801C40F22551085510E1AFF299
:1052D000F871284601F0E3FD08B90020606007E19D
:1052E000AFF62801284601F0DAFD08B90020606019
:1052F000FEE028782B2806D10021681CFEF701FF6C
:105300004FF48D610851AFF64C01284601F0C7FDFE
:1053100050B900206060012184F86C1404F58561A7
:105320002046FEF7F1FF0FE0AFF65C01284601F0E2
:10533000B6FD48B900206060002184F86C1404F5C3
:1053400085612046FEF7E0FFD2E00A2244A128460C
:1053500001F0C9FD30B9002204F5607105F10C00BF
:10536000FEF73CFFAFF6AC01284601F098FD08B906
:1053700000206060BCE009223CA1284601F0B3FD9A
:1053800030B9002204F2923105F10B00FEF726FF3E
:10539000AFF6D801284601F082FD08B90020606010
:1053A000A6E00B2234A1284601F09DFD70B9E87AF1
:1053B000303800F0FF09B9F1040F02D13148C4F8C8
:1053C000540149462046FEF79EFF00BFAFF6141178
:1053D000284601F064FD28B1AFF60411284601F01B
:1053E0005EFD40B90020606047F23050C4F85401BF
:1053F0002046FEF787FFAFF62811284601F04FFD43
:1054000040B90020606047F23050C4F85401204693
:10541000FEF777FF6CE000002B43574A41503A00FB
:105420004641494C0D0A00002B43574A41505F4307
:1054300055523A002B43574C41503A009C0C0020E7
:105440002B435753415000002B43495053544100C4
:105450002B4349504150000053454E44204F4B00D0
:105460002B4349505354414D414300002B43495075
:1054700041504D41430000002B4349505550444199
:1054800054453A00E0930400AFF6D011284601F0ED
:1054900006FD08B9002060602AE0AFF6E01128465A
:1054A00001F0FDFC08B90020606021E0AFF6F411C6
:1054B000284601F0F4FC08B90020606018E0287864
:1054C000302806DB2878392803DC29462046FEF7F9
:1054D000EDFEAFF61821284601F0E1FC30B90020BE
:1054E000606004F2BC412046FEF72DFE00E000BFE4
:1054F00000BFAFF63821284601F0D1FC68B940F270
:105500002550005D20F00200801C40F22551085516
:105510006068082801D000206060AFF64C21284662
:1055200001F0BDFC28B1AFF64821284601F0B7FCD8
:1055300048B940F22550005D20F0020140F22550AC
:10554000015500206060AFF68421284601F0A7FCD9
:1055500048B90020606040F22550005D20F0010154
:1055600040F22550015500BFFFF7DBB97047F0B599
:10557000C1B00446D4F8540118B947F23050C4F809
:105580005401D4F84811D4F84C01401AD4F85411FD
:10559000884241D92679002060600A2E3CD100BFA4
:1055A000002194F9BB0400EBC00000EB400204F5BD
:1055B000AC7000F8221094F9BB0400EBC00000EBC3
:1055C000400204F5AC7000EB8200817094F9BB04DA
:1055D00000EBC00000EB400204F5AC7000EB820071
:1055E00080F8691094F9BB0400EBC00000EB4002A6
:1055F00004F5AC7000EB820080F8681000BF94F9ED
:10560000BB0400EBC00000EB400204F5AC7000EB03
:1056100082012046FEF7BBFA6068112817D194F882
:105620002004A0B90322F7A1F74801F008FB0028E5
:105630000DDBF54801F0D3FA0020606040F2255000
:10564000005D20F00200801C40F22551085505E065
:105650003B46012201A92046FFF74FF994F82004A8
:1056600038B94FF4807201A9E74801F045FB071EE5
:10567000EEDC05E03B46002201A92046FFF73DF99C
:1056800094F8200448B9606838B94FF4807201A9D1
:10569000DE4801F031FB071EECDC94F82004002802
:1056A0007DD040F22540005D90B31BE001226946A9
:1056B000D64801F042FA9DF8001040F22240025B09
:1056C000005B401C83B240F222400353801C005D0B
:1056D00000EBC00000EB400304F5AC7000EB83006E
:1056E0008069815440F22240015B801C005D00EB28
:1056F000C00000EB400204F5AC7000EB8200C06813
:10570000814238D2C04801F056FA0028CEDC32E09F
:10571000FFE71BE001226946BC4801F00EFA9DF844
:10572000001040F22240025B005B401C83B240F25A
:1057300022400353801C005D00EBC00000EB4003DF
:1057400004F5AC7000EB83008069815440F2224084
:10575000015B801C005D00EBC00000EB400204F523
:10576000AC7000EB8200C068814204D2A74801F00F
:1057700022FA0028CEDC40F22240015B801C005D52
:1057800000EBC00000EB400204F5AC7000EB8200BF
:10579000C068814242D3002084F8200400E03DE04C
:1057A00040F22440005D00EBC00000EB400104F536
:1057B000AC7000EB810090F8690008B340F224411E
:1057C000095D01EBC10101EB410204F5AC7101EB94
:1057D000820188698EA101F03DFB051E10D01035B5
:1057E00000212846FEF78DFC40F22441095D01EBC3
:1057F000C10101EB410204F5AC7101EB82010862C9
:10580000012140F22440005D00EBC00000EB4002AB
:1058100004F5AC7000EB8200017700BF2046FEF774
:1058200015FC00BF002084F8280541B0F0BD10B57C
:10583000044600BF40F22550005D00F0010078B141
:10584000022278A1704801F0FAF9002808DB40F242
:105850002550005D20F0010140F22550015505E082
:105860002046FFF784FE60680028E3D100BF00BF38
:10587000002084F8280510BD2DE9F04104460D46AE
:1058800016461F4600BF606840B12046FFF76FFE16
:1058900000BF072084F82805BDE8F08100BF112D66
:1058A00002D1594801F09BF9304601F0F1FA1FFA94
:1058B00080F84146304601F08AFA65600020207287
:1058C000394604F1080001F005FBD4F84C01C4F896
:1058D000480100BF002084F8280500BFDCE710B5B0
:1058E000044651A353A217212046FFF7C5FF94F8A1
:1058F000280578B904F22454207820F01000207094
:10590000207820F020002070207820F040002070C7
:10591000A4F2245494F8280510BD10B50446AFF243
:10592000B44348A219212046FFF7A6FF94F82805A2
:1059300028B994F8240520F0800084F8240594F810
:10594000280510BD10B50446AFF2EC4341A2182162
:105950002046FFF791FF94F8280528B994F824050C
:1059600020F0080084F8240594F8280510BD30B50F
:1059700089B004460D462A463AA101A801F058FB19
:105980003DA301AA07212046FFF776FF18B194F83E
:10599000280509B030BD2046FFF749FF40F22550E9
:1059A000005DC0F3400020B900BF012084F8280545
:1059B000EFE700BF002084F8280500BFE9E730B515
:1059C00089B004460D462A462EA101A801F030FBFD
:1059D00030A301AA0B212046FFF74EFF18B194F81F
:1059E000280509B030BD2046FFF721FF40F22550C1
:1059F000005DC0F3400020B900BF012084F82805F5
:105A0000EFE74DE04F4B0D008806002074060020A4
:105A1000436F6E74656E742D4C656E6774683A20C2
:105A2000000000003E2000002B43495041505F43DE
:105A30005552000041542B43495041505F43555249
:105A40003F0D0A0041542B43495041504D41433FC3
:105A50000D0A000041542B4349505354414D4143DA
:105A60003F0D0A0041542B43495044494E464F3D97
:105A700025640D0A0000000041542B43495044495D
:105A80004E464F0041542B4349504D55583D2564D7
:105A90000D0A000041542B4349504D555800000059
:105AA00000BF002084F8280500BF9AE77CB50446B3
:105AB0000E460020C4F85401F74A4FF40071F7482D
:105AC00000F0D8FF20B100BF052084F828057CBD78
:105AD000F34A4FF48061F34800F0CCFF20B100BFDF
